:10044A0077656C636F6D6520746F20757365210025
:10045A0073686977753D2020202E202020206700B0
:10042300C2A58F807F017E00120434D2A77F057E90
:0104330000C8
:10043400EF1FAA0670011E4A600BE4FDEDC3947819
:0504440050EE0D80F7F1
:010449002290
:0A04A300C2A7C2A6120423C2A722BA
:03047E002430FF28
:0A048100C2A7D2A6120423C2A722CC
:1003A600C2A7C2A57F381204A37F0C1204A37F063E
:1003B6001204A37F011204A37F801204A3E4FCECC1
:1003C60090044A93FF1204810CBC0FF37FC0120401
:1003D600A3E4FCEC90045A93FF1204810CBC0FF3C7
:0103E60022F4
:0304AD000000222A
:1003E7007F007E007D007C00D2B71204ADC2B6202C
:1003F700B7FDE4FBD2B67801120186C2B630B70D5D
:10040700EF2401FFE43EFEE43DFDE43CFC0BBB189A
:0B041700E3D2B6ED6480FDC2B6D2B7A0
:0104220022B7
:0C048B001203E78F0B8E0A8D098C0822EB
:1002FC001203E78F178E168D158C14AF0BAE0AAD4B
:10030C0009AC08AB17AA16A915A814C312017040A2
:10031C0044851713851612851511851410E5139550
:10032C000BF513E512950AF512E5119509F511E592
:10033C00109508F510AF13AE12AD11FC1200A37B93
:10034C00007A4079BF78441200061200E18F138EB8
:06035C00128D118C10222D
:10026700E47BE87A03F9F8AF13AE12AD11AC1012C4
:1002770003628F1AE47BE87A03F9F8AF13AE12AD85
:1002870011AC10120362AC00AD01AE02AF03E47B08
:1002970064FAF9F81203628F19E47B64FAF9F8AF8C
:1002A70013AE12AD11AC10120362AC00AD01AE0279
:1002B700AF03E47B0AFAF9F81203628F18E47B0AAA
:1002C700FAF9F8AF13AE12AD11AC10120362AF0317
:1002D700AC077FC71204A3E51A12047EE5191204BE
:1002E7007E7F2E120481E5182430FF120481EC244E
:0502F70030FF0204814C
:10046A001203A61203E712048B1203E71202FC120C
:04047A00026780F5A0
:10000300020157EC5D046005E85904700302014DD9
:10001300120118580460F6EC4860F2EC7004FDFE1F
:10002300FF22C860DB2481C85009C39860025006D0
:100033000201549850CAF582E9294B4A7005AB82F4
:1000430002014375F0007C1A7880C3EF9BEE9AEDB2
:1000530099400DC3EF9BFFEE9AFEED99FDE842F048
:10006300DC23ACF0D0E0FFD0E0FED0E0FDAB82209B
:10007300E7101BEB60BAEC2CFCEF33FFEE33FEED25
:1000830033FD02012FE803F830E705C0F075F000F7
:10009300EF2FFFEE33FEED33FD40B830E7C280AA09
:1000A30075F020800E75F010800575F0087D007ED8
:1000B300007F003392D530D503120162EC33401038
:1000C300EF33FFEE33FEED33FDEC33FCD5F0ED22E1
:0E00D300E5F0247EA2D513CC92E7CDCEFF221D
:1000E100EDD2E7CD33EC3392D524814006E4FFFE17
:1000F100FDFC22FCE4CFCECDCC24E0501174FF8076
:10010100EDC3CC13CCCD13CDCE13CECF13CF047012
:07011100F030D5DE020162AF
:10011800E9D2E7C933E833F892D5EDD2E7CD33EC2D
:0701280033FC5002B2D522A6
:10012F00EC30E7100FBF000C0EBE00080DBD000431
:10013F000BEB6014A2D5EB13FCED92E7FD2274FFDD
:10014F00FCFDFEFF22E480F8A2D574FF13FC7D8036
:03015F00E480EF4A
:0300000002049760
:0C049700787FE4F6D8FD75811A02046A33
:10036200C2D5E830E70FB2D5E4C39BFBE49AFAE4C6
:1003720099F9E498F8EC30E717B2D5120398120114
:10038200D5E4C39BFBE49AFAE499F9E498F8800374
:100392001201D530D50DE4C39FFFE49EFEE49DFD1E
:0403A200E49CFC22B9
:0E016200C3E49FFFE49EFEE49DFDE49CFC22AE
:10017000EB9FF5F0EA9E42F0E99D42F0EC6480C806
:0601800064809845F022A6
:10018600E8600FEFC333FFEE33FEED33FDEC33FCD7
:03019600D8F1227B
:1001990075F008758200EF2FFFEE33FECD33CDCC1D
:1001A90033CCC58233C5829BED9AEC99E5829840A0
:1001B9000CF582EE9BFEED9AFDEC99FC0FD5F0D67D
:1001C900E4CEFBE4CDFAE4CCF9A88222B800C1B9A7
:1001D9000059BA002DEC8BF084CFCECDFCE5F0CBE5
:1001E900F97818EF2FFFEE33FEED33FDEC33FCEB1E
:1001F90033FB10D703994004EB99FB0FD8E5E4F9D9
:10020900FA227818EF2FFFEE33FEED33FDEC33FCC5
:10021900C933C910D7059BE99A4007EC9BFCE99AB9
:10022900F90FD8E0E4C9FAE4CCFB2275F010EF2FFE
:10023900FFEE33FEED33FDCC33CCC833C810D707FE
:100249009BEC9AE899400AED9BFDEC9AFCE899F839
:0E0259000FD5F0DAE4CDFBE4CCFAE4C8F922CC
:00000001FF
